:020000023000CC
:10E000000D947EF00D94ACF00D94ACF00D94ACF04A
:10E010000D94ACF00D94ACF00D94ACF00D94ACF00C
:10E020000D94ACF00D94ACF00D94ACF00D94ACF0FC
:10E030000D94ACF00D94ACF00D94ACF00D94ACF0EC
:10E040000D94ACF00D94ACF00D94ACF00D94ACF0DC
:10E050000D94ACF00D94ACF00D94ACF00D94ACF0CC
:10E060000D94ACF00D94ACF00D94ACF00D94ACF0BC
:10E070000D94ACF00D94ACF00D94ACF00D94ACF0AC
:10E080000D94ACF00D94ACF00D94ACF00D94ACF09C
:10E090000D94ACF00D94ACF00D94ACF00D94ACF08C
:10E0A0000D94ACF00D94ACF00D94ACF00D94ACF07C
:10E0B0000D94ACF00D94ACF00D94ACF00D94ACF06C
:10E0C0000D94ACF00D94ACF00D94ACF00D94ACF05C
:10E0D0000D94ACF00D94ACF00D94ACF00D94ACF04C
:10E0E0000D94ACF00D941DF50D9400F20D94B7F65F
:10E0F0000D94AEF20D9418F60D946DF211241FBE1E
:10E10000CFEFD1E2DEBFCDBF01E00CBF87EF84BF10
:10E110000FB6F894A89580916000886180936000A4
:10E12000109260000FBE12E0A0E0B2E0E8EFFEEE59
:10E1300003E00BBF02C007900D92AE30B107D9F7D4
:10E1400023E0AEE0B2E001C01D92AB33B207E1F7CD
:10E150000F946EF10D947AF70D9400F0559A569A3B
:10E1600008955D9A08955D9808955E9A08955E9861
:10E1700008955E9B0D94B5F00D94B7F05D9B0D94E2
:10E18000B1F00D94B3F0249A229A219A2B9A089513
:10E1900080EA31973197319700008A95D1F7089539
:10E1A00002D02C9801C02C9A8FEF98E087FD2A9A14
:10E1B00087FF2A98880F1B998395299A29989A9501
:10E1C000A9F70895FB018BBF83E080935700E89582
:10E1D0008091570080FDFCCF81E180935700E89546
:10E1E00008950F921F928BBFFB01DA0190E80D900A
:10E1F0001D9081E080935700E89532969A95B9F783
:10E20000FB0185E080935700E8958091570080FDE1
:10E21000FCCF81E180935700E8951F900F900895FF
:10E22000CF92DF92EF92FF92CF93DF931F921F92D4
:10E23000CDB7DEB7C12CD12C760140E051E06FEFB5
:10E2400070E08BE392E00F9473F7AE014F5F5F4F86
:10E2500060E071E08BE392E00F9417F5ABE3B2E07E
:10E26000B701A6016BBFFA0197918D9198131CC05D
:10E270004F5F5F4F6F4F7F4F83E0AB33B80791F72E
:10E280008FEFD81AE80AF80AC11480EED80683E0A6
:10E29000E806F10491F60F900F90DF91CF91FF9077
:10E2A000EF90DF90CF900895C701B6010F94E2F090
:10E2B0004BE352E0C701B6010F94F1F0E1CF81E1E9
:10E2C00092E00F94A8F2811108C080E092E00F94D0
:10E2D00091F3811102C00F9410F10895C0E0D0E0D5
:10E2E0000F945FF1FE0185919491019619F01CBE87
:10E2F000FE011995FFEF23E284EFF15020408040AA
:10E30000E1F700C00000ECCF0F931F93E0910E02E5
:10E31000F0910F029B01AC012250310941095109D2
:10E3200086819781A085B1850297A109B109281737
:10E3300039074A075B0768F4A281B0E00F9422F71F
:10E340000289138924893589600F711F821F931FE9
:10E3500003C060E070E0CB011F910F9108950F930F
:10E360001F93CF93DF93DC01E0910E02F0910F0237
:10E3700011961C921E9214966D917D918D919C9197
:10E380001797613071058105910569F10681178143
:10E3900020853185601771078207930720F5611585
:10E3A00071058105910539F42081233021F46685BA
:10E3B000778580899189ED01688779878A879B872E
:10E3C000611571058105910519F00F9484F104C060
:10E3D00066857785808991896C877D878E879F8701
:10E3E00080E090E002C081E090E0DF91CF911F914A
:10E3F0000F910895A4E0B0E0E0E0F2EF0D943BF758
:10E40000623071058105910508F459C0E0910E0252
:10E41000F0910F0206811781208531856017710701
:10E420008207930708F04BC0AB01BC0180818230AA
:10E4300019F08330F1F043C09A013327220F331FC4
:10E44000452F562F672F772782859385A485B5851D
:10E45000480F591F6A1F7B1F02E010E0CE01019692
:10E460000F94B1F6892B59F569817A8180E090E0AB
:10E470002AC09A012F773327220F331F220F331F11
:10E4800097E076956795579547959A95D1F7828548
:10E490009385A485B585480F591F6A1F7B1F04E02B
:10E4A00010E0CE0101960F94B1F6892B41F48981D9
:10E4B0009A81AB81BC81BC01CD019F7004C061E039
:10E4C00070E080E090E02496E4E00D9457F7A0E03F
:10E4D000B0E0EDE6F2EF0D9437F7EC016A017B0155
:10E4E00002E010E02EEF31E00F94B1F6892B31F508
:10E4F0008881998185359A4A19F526E330E0B7017C
:10E50000A601CE010F94B1F6892B39F48881998147
:10E510008634914411F480E016C002E010E022E558
:10E5200030E0B701A601CE010F94B1F6892B51F46A
:10E53000888199818634914429F4EDCF83E003C02A
:10E5400082E001C081E0CDB7DEB7E8E00D9453F77B
:10E55000A4E2B0E0EEEAF2EF0D942DF71C01109268
:10E560000F0210920E020F9412F680FD9FC040E041
:10E5700050E0BA01CE0101960F9467F2813009F59F
:10E5800000E110E02EEB31E040E050E0BA01CE01B6
:10E5900001960F94B1F6892B19F081E090E0BDC08F
:10E5A0008D81811103C086E090E0B7C049845A8410
:10E5B0006B847C84B301A201CE0101960F9467F2B3
:10E5C00003C0412C512C3201833039F38111EBCF40
:10E5D00004E210E02DE030E0B301A201CE0101968B
:10E5E0000F94B1F6892BC9F62A853B8540E050E0AF
:10E5F000211531054105510521F4288D398D4A8DAC
:10E600005B8DAC81B0E00F9422F74B015C014A8135
:10E610005B8160E070E0440E551E661E771EF101BE
:10E62000428653866486758629812283CD80DE806A
:10E63000D582C4828F819885A0E0B0E00097A105C3
:10E64000B10521F48C899D89AE89BF8934E0D694C7
:10E65000C7943A95E1F7E12CF12C841B950BA60B9E
:10E66000B70B88199909AA09BB09BC01CD016C191E
:10E670007D098E099F0930E040E050E00F9400F7DB
:10E68000DA01C9010296A11DB11DF10186839783AC
:10E69000A087B187BA01A901465F5F40610971098E
:10E6A0004F3F5F4E6105710590F003C082E090E03E
:10E6B00034C0873F9F4FA105B10508F474CF83E0B4
:10E6C000F101808388A199A1AAA1BBA10EC0873FB7
:10E6D0009F4FA105B10598F782E0F1018083D50134
:10E6E000C401840D951DA61DB71D86879787A08B35
:10E6F000B18BC40CD51CE61CF71CC80CD91CEA1C39
:10E70000FB1CF101C28AD38AE48AF58A1182309215
:10E710000F0220920E0280E090E0A496E2E10D94B8
:10E7200049F76F927F929F92AF92BF92CF92DF9202
:10E73000EF92FF920F931F93CF93DF93CDB7DEB786
:10E74000EC970FB6F894DEBF0FBECDBFE0900E027F
:10E75000F0900F02E114F10409F444C1F7011182B1
:10E760009E012F5C3F4F3CA32BA39C016901F90143
:10E7700080812F5F3F4F8032C9F38F3209F46901E6
:10E780001DA21EA21FA218A6F6018081803238F0B9
:10E79000A0E29A2E5E01FCE0AF0EB11C69C0CE0172
:10E7A00081960F94AFF11982009709F4E6C02BC14E
:10E7B00080E090E028E031E0390FD601A90FB11DCB
:10E7C0009C91913208F05FC0C30ED11C81E0913260
:10E7D00008F080E08387CE0181960F94AFF1009717
:10E7E00009F011C129A13AA12F703327F5E0220FBA
:10E7F000331FFA95E1F74DA55EA56FA578A900E254
:10E8000010E0CE0101960F94B1F6892B09F0EFC00C
:10E810008981882309F4EEC08C8583FD49C0DE011F
:10E820001196EBA1FCA1AF01AA16BB06E1F5FA0116
:10E8300093859111A2C084FFDDC0E0910E02F0919A
:10E840000F028081833009F094C08D899E89A0E0F9
:10E85000B0E0DC01992788274B8D5C8D60E070E08B
:10E86000842B952BA62BB72B8DA39EA3AFA3B8A764
:10E87000EBA1FCA1DF01CF010B96A817B90709F4A2
:10E8800097CF9D92FACF9F3209F49ECF9E3209F422
:10E89000B4C0821708F098CFDF01A80FB11D9C9378
:10E8A0008F5F932F88CF2D919191291709F4BCCFB9
:10E8B00069A07AA0FFEF6F1A7F0A09F49BC08DA5AB
:10E8C0009EA5AFA5B8A90097A105B10509F492C00E
:10E8D00093012F703327232B09F048C000910E02BB
:10E8E00010910F020196A11DB11D8DA79EA7AFA784
:10E8F000B8AB69A57AA58BA59CA5F8016115710532
:10E900008105910539F4848195816816790608F0AE
:10E9100071C02CC0228130E0A901415051099301FE
:10E92000E4E036952795EA95E1F724233523232B58
:10E93000E9F40F94FAF1623071058105910508F44C
:10E9400056C0F8010681178120853185601771074F
:10E950008207930708F04EC069A77AA78BA79CA7E8
:10E960000F9484F16DA77EA78FA798AB7AA269A2B6
:10E9700039CF80E090E0DC016FCF89818823A1F15D
:10E980008C8584FD31C0E0910E02F0910F028081F0
:10E99000833041F48D899E89A0E0B0E0DC019927A5
:10E9A000882703C080E090E0DC014B8D5C8D60E047
:10E9B00070E0842B952BA62BB72BF701868F978FB2
:10E9C000A0A3B1A38D8D9E8DAF8DB8A1828F938FA3
:10E9D000A48FB58F168A178A108E118E81E08183DD
:10E9E00080E003C085E001C083E090E00CC081E0DE
:10E9F00090E009C083E090E006C0283009F0E4CE42
:10EA000088E02BE04ECFEC960FB6F894DEBF0FBE39
:10EA1000CDBFDF91CF911F910F91FF90EF90DF90CD
:10EA2000CF90BF90AF909F907F906F900895A0E09F
:10EA3000B0E0EDE1F5EF0D942FF74C016B015A01B9
:10EA4000C0910E02D0910F02FA011182108220971C
:10EA500009F4A1C0898180FFA1C08A8D9B8DAC8DF6
:10EA6000BD8D4E895F89688D798D841B950BA60BB2
:10EA7000B70BA60160E070E084179507A607B707FB
:10EA800008F46C013401412C32E0532EC114D1043E
:10EA900009F47EC08E899F89A88DB98DAC01BD0116
:10EAA000517066277727452B462B472BD1F5FA80E7
:10EAB000FA94AC01BD0129E0769567955795479585
:10EAC0002A95D1F7F422C1F4892B8A2B8B2B29F4B8
:10EAD0006E8D7F8D88A199A106C06AA17BA18CA1B2
:10EAE0009DA10F94FAF16230710581059105A0F1A5
:10EAF0006AA37BA38CA39DA36AA17BA18CA19DA1EA
:10EB00000F9484F1611571058105910529F1DC01EE
:10EB1000CB018F0D911DA11DB11D8EA39FA3A8A791
:10EB2000B9A72E893F893170C201821B930B7601F0
:10EB30008C159D0508F47C014EA15FA168A579A5FF
:10EB40008114910411F0C30102C080E090E08701BC
:10EB50000F94B1F6892B21F0198281E090E020C05A
:10EB60008E899F89A88DB98D8E0D9F1DA11DB11D08
:10EB70008E8B9F8BA88FB98F6E0C7F1CCE18DF08F1
:10EB8000F50180819181E80EF91EF182E0827ECF4D
:10EB900080E090E005C085E090E002C084E090E075
:10EBA000CDB7DEB7E0E10D944BF7FF920F931F93C3
:10EBB000CF93DF93C82FD42F152F062FF72E87FF63
:10EBC00009C040E050E0BA0187E70F94D5F58230E4
:10EBD00020F5CF770F94D0F08C2F0F94D5F08F2D98
:10EBE0000F94D5F0802F0F94D5F0812F0F94D5F08E
:10EBF0008D2F0F94D5F0C03421F0C83421F487E86C
:10EC000003C085E901C081E00F94D5F0CAE00F94FC
:10EC1000D4F087FF02C0C150D1F7CDB7DEB7E5E031
:10EC20000D9456F7A4E0B0E0E8E1F6EF0D9437F765
:10EC30000F94C3F014E60F94C8F01150E1F71AE0F6
:10EC40000F94D3F01150E1F740E050E0BA0180E4B6
:10EC50000F94D5F5813009F05DC04AEA51E060E0DB
:10EC600070E088E40F94D5F5813061F58E010F5F77
:10EC70001F4F6E0185E0C80ED11C78010F94D4F0AF
:10EC8000F70181937F01EC15FD05C1F78B81813080
:10EC900009F040C08C818A3A09F03CC090E1E92E2D
:10ECA00097E2F92E40E050E060E070E489EE0F94C6
:10ECB000D5F5882339F10F94C8F0F1E0EF1AF10887
:10ECC00089F728C040E050E0BA0189EE0F94D5F5ED
:10ECD000823018F011E001E402C012E009EE80E198
:10ECE000E82E87E2F82E40E050E0BA01802F0F9422
:10ECF000D5F5882341F10F94C8F0F1E0EF1AF1083F
:10ED000091F708C040E050E0BA018AE70F94D5F5CA
:10ED1000882311F010E00CC00F94D4F0F801819317
:10ED20008F01CE16DF06C1F7898186FD0AC014E087
:10ED3000109310020F94D3F081E0112371F080E062
:10ED40000CC01CE0F5CF40E052E060E070E080E5F0
:10ED50000F94D5F58111DECFEBCF2496E8E00D942A
:10ED600053F7A0E0B0E0E7EBF6EF0D9437F7D82EBD
:10ED7000C92E79018091100283FD07C089E0440FFC
:10ED8000551F661F771F8A95D1F781E50F94D5F53A
:10ED9000882319F0C1E0D0E02BC0C0E4DCE90F9477
:10EDA000D4F08F3F19F42197D1F7F4CF8E3F91F72C
:10EDB000C2E0D2E0C01BD10BCE19DF09E114F1048F
:10EDC00019F4ED2CFC2C06C00F94D4F081E0E81A65
:10EDD000F108F4CF0F94D4F0F70181937F01015033
:10EDE0001109C1F70F94D4F02197E1F7C0E0D0E00A
:10EDF0000F94D3F0CE01CDB7DEB7E8E00D9453F712
:10EE0000A1E21A2EAA1BBB1BFD010DC0AA1FBB1F2E
:10EE1000EE1FFF1FA217B307E407F50720F0A21BA0
:10EE2000B30BE40BF50B661F771F881F991F1A940D
:10EE300069F760957095809590959B01AC01BD0137
:10EE4000CF0108950F9464F7A59F900DB49F900D86
:10EE5000A49F800D911D112408952F923F924F92EF
:10EE60005F926F927F928F929F92AF92BF92CF925A
:10EE7000DF92EF92FF920F931F93CF93DF93CDB763
:10EE8000DEB7CA1BDB0B0FB6F894DEBF0FBECDBFDB
:10EE900019942A88398848885F846E847D848C849C
:10EEA0009B84AA84B984C884DF80EE80FD800C81B5
:10EEB0001B81AA81B981CE0FD11D0FB6F894DEBF98
:10EEC0000FBECDBFED010895A29FB001B39FC00159
:10EED000A39F700D811D1124911DB29F700D811D86
:10EEE0001124911D0895DC0101C06D9341505040E3
:08EEF000E0F70895F894FFCF4C
:0EEEF8004649524D574152452E42494E0000A8
:040000033000E000E9
:00000001FF
